:020000040800F2
:10000000C811002001010008091E0008191000088D
:10001000051E0008B5050008733800080000000040
:10002000000000000000000000000000BB2C0008E1
:100030004B0600080000000051230008913500081D
:100040001B0100081B0100081B010008F92600081D
:100050001B0100081B0100081B0100081B01000810
:100060001B0100081B0100081B0100081B01000800
:100070001B0100081B0100081B0100081B010008F0
:100080001B0100081B0100081B0100081B010008E0
:100090001B0100081B0100081B0100081B010008D0
:1000A0001B0100081B0100081B0100081B010008C0
:1000B0001B0100081B0100081B0100081B010008B0
:1000C0001B0100081B0100081B0100081B010008A0
:1000D0001B010008313600081B0100081B01000845
:1000E0001B0100081B0100081B010008DFF80CD0F1
:1000F00000F078F800480047353E0008C81100209D
:100100000648804706480047FEE7FEE7FEE7FEE7B1
:10011000FEE7FEE7FEE7FEE7FEE7FEE7D135000873
:10012000ED000008D2B201E000F8012B491EFBD21D
:1001300070470022F6E710B513460A4604461946F2
:10014000FFF7F0FF204610BD421C10F8011B0029EC
:10015000FBD1801A704730B504460020034600E00A
:100160005B1C934203D2E05CCD5C401BF8D030BDF9
:10017000034611F8012B00F8012B002AF9D118468B
:1001800070472DE9F05F0546002092469B46884661
:100190000646814640241BE0284641464746224603
:1001A00000F041F853465A46C01A914110D3114607
:1001B0001846224600F028F82D1A67EB01084F4632
:1001C00022460120002100F01FF817EB00094E41E4
:1001D000201EA4F10104DFDC484631462A4643468E
:1001E000BDE8F09F064C074D06E0E06840F00103D3
:1001F00094E8070098471034AC42F6D3FFF77AFF33
:10020000447A0008647A0008202A04DB203A00FAC5
:1002100002F1002070479140C2F1200320FA03F35D
:10022000194390407047202A04DB203A21FA02F05B
:100230000021704721FA02F3D040C2F12002914020
:1002400008431946704700002DE9FE434FF00008AF
:10025000012701F01DFE002010217FA20B46CDE9F1
:10026000002102908022014603F0CAF800200C21F0
:100270007EA20B46CDE9002102908022142103F0DA
:10028000BFF800200C217DA20B46CDE90021029091
:100290008022342103F0B4F801F0E4FE01F0FAFA10
:1002A000D5E000F055F97749522001F033FB0746BD
:1002B000002F7BD174A003F0F5FA00200C2175A269
:1002C0000B46CDE9002102908022262103F098F808
:1002D00001F0C8FE724801F075FA0746704801F057
:1002E00051FB81466E4B6F4A0421602001F09BFA5E
:1002F00007466D49042001F01DFC07466B490420A8
:1003000001F0ECFA07466AA003F0CCFA002406E0FC
:100310006348015D6AA003F0C5FA601CC4B2052CF5
:10032000F6DB5BA003F0BEFA00F00CF901F0C8FDAB
:1003300000200C2164A20B46CDE90021029080220E
:1003400003F05EF800200C2165A20B46CDE90021E8
:100350000290802234217A2003F052F800200C21F0
:1003600060A20B46CDE9002102908022342103F0E7
:1003700047F801F077FE00BF00F0F7FAC5B20A2D8A
:10038000FADA29465CA003F08DFA01F099FD00200D
:100390000C215EA20B46CDE900210290802226218D
:1003A00003F02EF801F05EFE00240AE048E03C482D
:1003B000015D05EB4502584800EB42000155601C09
:1003C000C4B2052CF3DB502253491239534802F0D2
:1003D000EDFB00241CE004EB44014F4800EB41001E
:1003E000C07804EB440C00904B4800EB4C00837841
:1003F00004EB440C484800EB4C00427804EB440CFE
:10040000454810F81C1046A003F04CFA601CC4B21A
:100410000A2CE0DB00200C2147A20B46CDE900218D
:1004200002908022262102F0EBFF01F01BFE4FF428
:100430007A7003F0A1FC01F02BFD0020BDE8FE83E3
:1004400000F02EFF064630460D2E00D100E028E7D2
:1004500000BF00BFF2E700003D3D3D20C2BCC8EB3D
:10046000BFA8C6AC203D3D3D00000000C7EBB7C5AE
:10047000C8EBD0C2BFA8C6ACA3BA0000B7B5BBD802
:1004800000000000050000207263353232206F6BDF
:100490000D0A0000B6C1BFA8B3C9B9A6A3A1000048
:1004A000070000200C00002012000020E2000020C5
:1004B000BFA8B5C4D0F2C1D0BAC5A3BA000000002D
:1004C0002523782000000000C7EBCAE4C8EBB4A2E3
:1004D000B4E6494428302D39293A20200000000094
:1004E00020000000C9BEB3FD20C7E5BFD5202020F5
:1004F000202020C8B7C8CF00D5FDD4DAC2BCC8EBD5
:10050000BFA8C6ACA3BA25640D0A0000D5FDD4DA95
:10051000C2BCC8EB2E0000009200002000F00008D2
:100520006361726469643D7B25582C25582C2558DD
:100530002C25587D0D0A0000C2BCC8EBB3C9B9A672
:10054000A3A1000010B50321142000F070F810BD25
:1005500010B5142002F054FA044604F0030018B950
:100560000321142002F0AAFB10BD10B5012001F0F8
:1005700011FF002001F00EFF10BD000008B501467C
:1005800000200090034800900098084400900098D4
:10059000008808BD006C004008B500220092044AA3
:1005A0000092009A02440092009A116008BD000077
:1005B000006C004000BFFEE72DE9F0410746884689
:1005C00015460421052000F032F880210A2002F0AF
:1005D00075FB0021012003F04FF9002405E0395D8F
:1005E000092003F049F9601C84B24445F7DB03217C
:1005F000012003F041F94FF47A7400BF052002F0A6
:10060000FFF90646601E84B21CB106F00400002803
:10061000F4D0222002F0F4F92870212002F0F0F941
:1006200068700021012003F027F9BDE8F08170B562
:1006300005460C460026284602F0E2F9064626EA60
:100640000401284603F018F970BD704710B5002169
:1006500008E00C2200BF131EA2F10104E2B2FAD19D
:100660004A1C91B28142F4DB10BD000010B594B079
:100670000024214890F84F0000283BDD01F008FCE1
:1006800036E02046641C0A2826D100241A4890F837
:100690004F0010B901F0FCFB2BE00020102117A245
:1006A0000B46CDE900210290802202F0A9FE1248FB
:1006B00090F84F2016A104A803F004F9002010219F
:1006C00004AA0B46CDE900210290802220211420AB
:1006D00002F096FE01F0C6FC012003F04DFB00F095
:1006E000DFFD042804D101F0D3FB012014B010BDBC
:1006F000C7E700BF00BFF9E780000020C3DCC2EB02
:10070000B4EDCEF3B4CECAFDB9FDB6E000000000F2
:10071000C7EB25303264C3EBBAF3D6D8CAD4000095
:100720000EB501F0B5FB0020102112A20B46CDE959
:1007300000210290802214211E2002F061FE01F0AF
:1007400091FC002010210EA20B46CDE90021029061
:10075000802214211E2002F053FE00223021382076
:1007600001F0A4FD01F07EFC4FF4FA7003F004FBED
:100770000EBD0000CBF8B6A8D6D0A3A100000000A3
:10078000D2D1CBF8B6A8A3A1000000000EB501F0AD
:100790007FFB0020182113A20B46CDE90021029017
:1007A00080220A21142002F02BFE01F05BFC0020C5
:1007B0000F49086001200F49C1F884010020182169
:1007C0000DA20B46CDE90021029080220A211420BF
:1007D00002F016FE01F046FC4FF4FA7003F0CCFA7A
:1007E0000EBD0000BDE2CBF8D6D02E2E2E000000AC
:1007F0008001214200002142D2D1BDE2CBF8A3A169
:100800000000000000B58BB01048807810490978CE
:10081000884218D00D4880780D490870182301AA25
:100820000021084601F012FD0C2301AA1A214420E0
:1008300001F00CFD0C2301AA19466E2001F006FD03
:100840000120044908700BB000BD0000F404002032
:100850005C0000200400002030B5044604254FF45D
:10086000302000F06FF80546042D17D10C480069C0
:1008700040F002000A49086108464461006940F0FE
:10088000400008614FF4302000F05CF80546044851
:10089000006941F6FD71084001490861284630BDF4
:1008A0000020024004200B49C96801F0010109B190
:1008B00001200EE00749C96801F0040109B10220D6
:1008C00007E00449C96801F0100109B1032000E004
:1008D00004207047002002400348006940F0800077
:1008E00001490861704700000020024070B50446CD
:1008F0000D460426F00200F025F80646042E11D11C
:100900000948006940F00100074908612580F002AC
:1009100000F018F806460448006941F6FE710840E8
:1009200001490861304670BD002002400248034979
:100930004860034848607047230167450020024033
:10094000AB89EFCD00B502460423FFF7ABFF0346AA
:1009500003E0FFF7A7FF0346521E012B01D1002A37
:10096000F7D102B90523184600BD38B5002400258B
:100970000C2003232A46202100904E2001F01CFC6D
:1009800001F070FB5FE000F08BFC0446601C002867
:1009900059D0112C4CD2DFE804F04B090A0B171A7E
:1009A0001B1C292E2F303D3E423F490000BF00BF97
:1009B000002C08DD0A2C06DA632D04DA05EB85002D
:1009C00004EB400085B233E04FF6FF7038BD00BF46
:1009D00000BF002C09DD0A2C07DA632D05DA05EBD0
:1009E000850004EB4000401E85B221E00A2095FB03
:1009F000F0F085B21CE000BF00BF002C09DD0A2C1E
:100A000007DA632D05DA05EB850004EB4000801E54
:100A100085B20DE00CE000BF4FF47F40D6E705EB58
:100A200085004FF6FF7101EA400501E02846CDE759
:100A300000BF0C2003232A46202100904E2001F005
:100A4000BBFB01F00FFB9EE72DE9F04102460025BC
:100A50000026002000230024002791F803C00CF09A
:100A60000F0591F803C00CF0100CBCF1000F03D07F
:100A700091F802C04CEA050591F800C0BCF1000FE6
:100A800031D0146800202BE04FF0010C0CFA00F379
:100A9000B1F800C00CEA03069E4220D183004FF05B
:100AA0000F0C0CFA03F7BC4305FA03FC4CEA0404F0
:100AB00091F803C0BCF1280F06D14FF0010C0CFADD
:100AC00000FCC2F814C00AE091F803C0BCF1480F62
:100AD00005D14FF0010C0CFA00FCC2F810C0401C0C
:100AE0000828D1D31460B1F800C0BCF1FF0F34DD89
:100AF000546800202EE000F1080C4FF0010808FABD
:100B00000CF3B1F800C00CEA03069E4221D1830029
:100B10004FF00F0C0CFA03F7BC4305FA03FC4CEA48
:100B2000040491F803C0BCF1280F05D100F1080CB2
:100B300008FA0CF8C2F8148091F803C0BCF1480F11
:100B400007D100F1080C4FF0010808FA0CF8C2F8C0
:100B50001080401C0828CED35460BDE8F0810246C6
:100B6000002093680B400BB1012000E0002070478B
:100B700041617047016170472DE9FC4F0646884688
:100B800092469B460B9F01969AE03878802818DAA7
:100B900097F80090B9F10D0F05D1019E08F11000F2
:100BA0001FFA80F808E0012000903A7808F0FF0171
:100BB000F0B20C2301F07AFA06F1080086B27F1C2D
:100BC0007EE04FF0000974E009EB890000EBC900FA
:100BD0003E4911F810003978884266D109EB890046
:100BE00000EBC900394901EB400040787978884230
:100BF0005BD1002457E0002524E009EB890000EBDD
:100C0000C900324901EB4000801C10F8140080211B
:100C10002941084048B10AF0FF0208EB0403D9B2A9
:100C20007319D8B201F064F90AE0DA4508D00BF084
:100C3000FF0208EB0403D9B27319D8B201F058F9D6
:100C4000681CC5B2082DD8DB002528E009EB890017
:100C500000EBC9001D4901EB4000801C012101EBA4
:100C60004401405C80212941084050B10AF0FF0254
:100C700008EB0403D9B273190833D8B201F038F97C
:100C80000BE0DA4509D00BF0FF0208EB0403D9B200
:100C900073190833D8B201F02BF9681CC5B2082DBE
:100CA000D4DB601CC4B20C2CA5DB09F101001FFAD7
:100CB00080F9B9F1960F87DBBF1C06F10C0086B2F4
:100CC000387800287FF461AFBDE8FC8F2847000822
:100CD0002DE9FC4F0646884692469B460B9F01969F
:100CE00092E03878802818DA97F80090B9F10D0F63
:100CF00005D1019E08F110001FFA80F808E00120DC
:100D000000903A7808F0FF01F0B2102301F0CEF91C
:100D100006F1080086B27F1C76E04FF000096CE017
:100D200009EB09103B4911F810003978884260D16D
:100D300009EB0910374901EB400040787978884287
:100D400057D1002453E0002522E009EB0910314976
:100D500001EB4000801C10F8141080202841014055
:100D600049B10AF0FF0208EB0403D9B27319D8B2F3
:100D700001F0BEF80AE0DA4508D00BF0FF0208EBFC
:100D80000403D9B27319D8B201F0B2F8681CC5B225
:100D9000082DDADB002526E009EB09101D4901EBDF
:100DA0004000801C012101EB4401405C802129416D
:100DB000084050B10AF0FF0208EB0403D9B27319DE
:100DC0000833D8B201F094F80BE0DA4509D00BF003
:100DD000FF0208EB0403D9B273190833D8B201F04B
:100DE00087F8681CC5B2082DD6DB601CC4B2102C75
:100DF000A9DB09F101001FFA80F9B9F13C0F8FDB83
:100E0000BF1C06F1100086B2387800287FF469AF65
:100E1000BDE8FC8F905400082DE9F04F0646884647
:100E200091469A46DDF824B0EBE09BF8000080285C
:100E300037DA9BF80070202F03DDA7F1200087B27E
:100E400000E00027002524E000241EE0704800EBAD
:100E50000710405D80212141084048B109F0FF02A0
:100E600008EB0503D9B23319D8B201F041F80AE012
:100E7000D14508D00AF0FF0208EB0503D9B23319B7
:100E8000D8B201F035F8601CC4B2082CDEDB681C57
:100E9000C5B2102DD8DB0BF1010B06F1080086B2AC
:100EA000AFE00027A5E007EB870000EB47105949AA
:100EB00011F810009BF8001088427DD107EB8700E5
:100EC00000EB4710534901EB400040789BF80110BC
:100ED0008842F2D1002587E0002425E007EB870057
:100EE00000EB47104B4901EB4000801C05EB45012E
:100EF000405C80212141084048B109F0FF0208EB25
:100F00000503D9B23319D8B200F0F2FF0AE0D14597
:100F100008D00AF0FF0208EB0503D9B23319D8B2A2
:100F200000F0E6FF601CC4B2082CD7DB002428E0E8
:100F300007EB870000EB4710364901EB4000801CAF
:100F400005EB4501491C405C80212141084050B11E
:100F500009F0FF0208EB0503D9B233190833D8B200
:100F600000F0C6FF0BE0D14509D00AF0FF0208EB04
:100F70000503D9B233190833D8B200F0B9FF601CA9
:100F8000C4B2082CD4DB00242AE007EB870000EB76
:100F90004710204901EB4000801C05EB4501891CEE
:100FA000405C80212141084060B109F0FF0208EB5C
:100FB0000503D9B2331900E019E01033D8B200F0BC
:100FC00097FF0BE0D14509D00AF0FF0208EB0503BB
:100FD000D9B233191033D8B200F08AFF601CC4B202
:100FE000082CD2DB681CC5B2182DFFF675AF781C33
:100FF00087B20A2FFFF657AF0BF1020B06F118006C
:1010000086B29BF8000000287FF40FAFBDE8F08F98
:1010100086660008785B000800BFFEE708B501217E
:10102000082001F0A7F94020ADF8000003208DF85A
:10103000020010208DF8030069460848FFF704FD00
:101040008020ADF8000069460448FFF7FDFC012050
:10105000034908600349C1F89C0108BD000C014028
:10106000988121420080214270B5044601F0EEFCD7
:10107000002014490860002520E004F080000028CA
:1010800004DD01200F49091D086003E000200D491F
:10109000091D08606006040E022002F093FE012084
:1010A00008490860022002F08DFE00200649C1F8C0
:1010B0009801022002F086FE681CC5B2082DDCDB18
:1010C00070BD0000988121420080214210B501F0DE
:1010D000BDFC0120094908600949C1F898010520B3
:1010E00002F070FE002005490860062002F06AFE4A
:1010F00000200349C1F8980110BD00009C812142E5
:101100000080214210B501F0A1FC002009490860CF
:101110000949C1F89C01012006490860062002F037
:1011200051FE01200449C1F89C01062002F04AFE4C
:1011300010BD0000988121420080214210B500249A
:1011400001200F49086002F03DFE01F071FC012012
:101150000C49C1F8980102F035FE07E0601CC4B2EA
:10116000FA2C03DDFFF7CEFF012010BD04488038C4
:1011700000680028F2D10249091F086000BFF4E7A7
:101180009C812142008021420146CA1701EB9272E4
:101190009210A1EB820292B9642091FBF0F200FB65
:1011A000121050B94FF4C87091FBF0F200FB12100E
:1011B00008B9012070470020FCE70120FAE7002071
:1011C000F8E7000008B50121082001F0D3F801215B
:1011D000082001F0CFF80121082001F0CBF801210F
:1011E000082001F0C7F80121082001F0C3F801210F
:1011F000082001F0BFF80121082001F0BBF801210F
:10120000082001F0B7F84FF48050ADF80000282016
:101210008DF8030069462148FFF716FC4FF4005093
:10122000ADF8000069461D48FFF70EFC4FF4804002
:10123000ADF8000069461948FFF706FC4FF400407E
:10124000ADF8000069461548FFF7FEFB4FF48070CB
:10125000ADF8000010208DF8030003208DF8020087
:1012600069460E48FFF7F0FB4FF40070ADF8000040
:1012700069460A48FFF7E8FB4FF48060ADF80000CC
:1012800069460648FFF7E0FB4FF40060ADF8000048
:1012900069460248FFF7D8FB08BD0000000C01407A
:1012A0002DE9F0474FF000084FF48071F948FFF73F
:1012B00061FC4FF40071F748FFF75CFC4FF480616C
:1012C000F448FFF757FC4FF40061F248FFF752FC77
:1012D0004FF48051EF48FFF742FC81464FF4005134
:1012E000EC48FFF73CFC49EA00094FF48041E9482B
:1012F000FFF735FC49EA00094FF40041E548FFF7E4
:101300002EFC49EA0009B9F1000F02D10020BDE826
:10131000F087052002F030FD4FF48051DD48FFF7E3
:101320001EFC81464FF40051DA48FFF718FC49EAE9
:1013300000094FF48041D748FFF711FC49EA000942
:101340004FF40041D348FFF70AFC49EA0009B9F11C
:10135000000F01D10020DAE74FF48071CD48FFF78C
:1013600009FC4FF40071CB48FFF702FC4FF4806199
:10137000C848FFF7FDFB4FF40061C648FFF7F8FBD4
:101380004FF48051C348FFF7EAFB05464FF4005184
:10139000C048FFF7E4FB06464FF48041BD48FFF725
:1013A000DEFB07464FF40041BA48FFF7D8FB04467E
:1013B000012D03D116B90FB904B9A8462DB9012ED4
:1013C00003D117B90CB94FF002082DB926B9012F76
:1013D00002D10CB94FF003082DB926B91FB9012C61
:1013E00001D14FF0040800BF4FF48051A948FFF726
:1013F000B6FB81464FF40051A648FFF7B0FB49EA1F
:1014000000094FF48041A348FFF7A9FB49EA00090E
:101410004FF400419F48FFF7A2FB49EA0009B9F1E8
:10142000000FE1DC4FF480719A48FFF7A1FB4FF405
:1014300000719848FFF79EFB4FF480619548FFF7D5
:1014400097FB4FF400619348FFF792FB4FF48051F4
:101450009048FFF784FB05464FF400518D48FFF795
:101460007EFB06464FF480418A48FFF778FB07462B
:101470004FF400418748FFF772FB0446012D04D169
:101480001EB917B90CB94FF005082DB9012E03D1BB
:1014900017B90CB94FF006082DB926B9012F02D1A2
:1014A0000CB94FF007082DB926B91FB9012C01D18D
:1014B0004FF0080800BF4FF480517648FFF74FFB0C
:1014C00081464FF400517348FFF749FB49EA000990
:1014D0004FF480416F48FFF742FB49EA00094FF49F
:1014E00000416C48FFF73BFB49EA0009B9F1000FE6
:1014F000E1DC4FF480716748FFF73AFB4FF400716D
:101500006448FFF735FB4FF480616248FFF732FB18
:101510004FF400615F48FFF72BFB4FF480515D48AB
:10152000FFF71DFB05464FF400515A48FFF717FB24
:1015300006464FF480415748FFF711FB07464FF42A
:1015400000415448FFF70BFB0446012D04D11EB99E
:1015500017B90CB94FF009082DB9012E03D117B9ED
:101560000CB94FF00A082DB926B9012F02D10CB9D8
:101570004FF00B082DB926B91FB9012C01D14FF03E
:101580000C0800BF4FF480514248FFF7E8FA81464B
:101590004FF400513F48FFF7E2FA49EA00094FF4DF
:1015A00080413C48FFF7DBFA49EA00094FF400416B
:1015B0003848FFF7D4FA49EA0009B9F1000FE1DC35
:1015C0004FF480713348FFF7D3FA4FF4007131487C
:1015D000FFF7CEFA4FF480612E48FFF7C9FA4FF4B7
:1015E00000612C48FFF7C6FA4FF480512948FFF7F5
:1015F000B6FA05464FF400512648FFF7B0FA064602
:101600004FF480412348FFF7AAFA07464FF4004100
:101610002048FFF7A4FA0446012D04D11EB917B9DA
:101620000CB94FF00D082DB9012E03D117B90CB923
:101630004FF00E082DB926B9012F02D10CB94FF089
:101640000F082DB926B91FB9012C01D14FF0100890
:1016500000BF4FF480510F48FFF781FA81464FF4E5
:1016600000510C48FFF77BFA49EA00094FF480412A
:101670000848FFF774FA49EA00094FF400410548A9
:10168000FFF76DFA49EA0009B9F1000FE1DC4046C5
:101690003DE60000000C014008B50121102000F0DB
:1016A00069FE0121042000F065FE0121042000F004
:1016B00061FE0121042000F05DFE0121042000F004
:1016C00059FE0121042000F055FE0121042000F004
:1016D00051FE0121042000F04DFE0121042000F004
:1016E00049FE4FF40050ADF8000010208DF80300C3
:1016F00003208DF8020069463048FFF7A5F94FF442
:1017000000512E48FFF736FA0120ADF80000694677
:101710002B48FFF799F901212948FFF72BFA0220FE
:10172000ADF8000069462648FFF78EF902212448EB
:10173000FFF720FA0420ADF8000069462048FFF7C3
:1017400083F904211E48FFF715FA0820ADF80000C0
:1017500069461B48FFF778F908211948FFF70AFA8C
:101760001020ADF8000069461548FFF76DF910210B
:101770001348FFF7FFF92020ADF800006946104834
:10178000FFF762F920210E48FFF7F4F94020ADF889
:10179000000069460A48FFF757F940210848FFF75B
:1017A000E9F98020ADF8000069460548FFF74CF9DB
:1017B00080210348FFF7DEF908BD0000001001405A
:1017C000000801402DE9FC41044600270821084695
:1017D000FEF72DFF80210E20FEF729FF00210D20AE
:1017E00002F04AF8932020702020607001A8234660
:1017F0000222214600900C2000F0FFF806465EB958
:10180000002503E0605D4740681CC5B2042DF9DB8C
:10181000605DB84200D0022680210E2001F04EFA11
:101820003046BDE8FC812DE9F04385B006460F4601
:10183000904699468DF804608DF80570002406E006
:1018400018F8041001AAA01C1154601CC4B2062C84
:10185000F6DB002407E019F8041001AA04F10800DF
:101860001154601CC4B2042CF5DB04A801AB0C229B
:1018700001A900900E2000F0C0F805462DB90820FF
:1018800001F0BEF800F0080000B90225284605B0B6
:10189000BDE8F08310B501F051F900F055F88D2145
:1018A0002A2001F0E9FF3E212B2001F0E5FF322143
:1018B0002D2001F0E1FF00212C2001F0DDFF40216F
:1018C000152001F0D9FF3D21112001F0D5FF0021A5
:1018D000012001F0D1FFFEF73BFE10BD7CB50546AF
:1018E0000C46302020706570A21C02212046FEF7B5
:1018F00063FE01A823460422214600900C2000F03C
:101900007CF806461EB9BDF80400902800D00226D7
:1019100030467CBD7CB506460C4607210D2001F003
:10192000ABFF267001A823460122214600900C201F
:1019300000F063F805461DB9BDF80400102800D07A
:10194000022528467CBD000010B540210C48FFF759
:1019500011F90120FEF77AFE40210948FFF708F946
:101960000120FEF773FE40210548FFF703F901202F
:10197000FEF76CFE0F21012001F07EFF10BD00007C
:1019800000080140F0B585B0054693208DF80400AD
:1019900070208DF8050000208DF80A0000240BE06F
:1019A000295D01AAA01C11549DF80A00295D484038
:1019B0008DF80A00601CC4B2042CF1DB0DF10B029F
:1019C000072101A8FEF7F8FD08210846FEF72FFEC3
:1019D00004A801AB092201A900900C2000F00DF829
:1019E000074637B9BDF81000182802D19DF80460E9
:1019F00000E00026304605B0F0BD2DE9FE4F06465A
:101A0000884691469A46DDF830B0022002900020C8
:101A1000019000900C2E06D00E2E09D112200190BC
:101A20001020009005E0772001903020009000E029
:101A300000BF00BF019840F08001022001F01CFFB0
:101A400080210420FEF7F3FD80210A2001F036F901
:101A50000021012001F010FF002506E018F8051014
:101A6000092001F009FF681C85B24D45F6DB3146BF
:101A7000012001F001FF0C2E03D180210D2001F087
:101A80001DF94FF4FA6500BF042000F0B9FF0446C9
:101A9000681E85B235B104F0010018B900982040E5
:101AA0000028F1D080210D20FEF7C1FD002D36D099
:101AB000062000F0A5FF00F01B0070BB019820403D
:101AC00000F0010008B1012002900C2E22D10A2062
:101AD00000F096FF04460C2000F092FF00F007078C
:101AE0002FB1601E07EBC000ABF8000002E0E00081
:101AF000ABF8000004B90124122C00DD12240025EB
:101B000006E0092000F07CFF0AF80500681C85B299
:101B1000A542F6DB0020029001E002200290802125
:101B20000C2001F0A9FE0021012001F0A5FE029881
:101B3000BDE8FE8FF0B587B006460F46A0208DF8B1
:101B400004008DF805600DF10602022101A8FEF7E0
:101B500033FD06A801AB042201A900900C20FFF779
:101B60004CFF05464DB9BDF81800042805D19DF875
:101B7000040000F00F000A2800D0022515BB002445
:101B800004E0385D01A90855601CC4B2102CF8DBD4
:101B900005AA102101A8FEF70FFD06A801AB12222D
:101BA00001A900900C20FFF728FF05464DB9BDF8AC
:101BB0001800042805D19DF8040000F00F000A2841
:101BC00000D00225284607B0F0BD00002DE9F04105
:101BD00094B00127FEF7BCFC58495220FFF79AFE4B
:101BE0000746002F7DD1FEF741FD18B1FF2014B04C
:101BF000BDE8F08152A001F055FE5448FFF7E2FD28
:101C000007465248FFF7BEFE8046504B504A04211B
:101C10006020FFF708FE07464E490420FFF78AFFC1
:101C200007464D490420FFF759FE074600260024C9
:101C30004AE0214649A001F035FE002518E004EBFA
:101C400044034B4800EB4300425D4048415D49A0DE
:101C500001F028FE3D48415D04EB4402444800EB9E
:101C60004200405D814201D1701CC6B2681CC5B201
:101C7000052DE4DB34A001F015FE042E21DB00204D
:101C80003B49123981F84E0000F01AF922463CA176
:101C900004A801F017FE00200C2104AA1423CDE9AA
:101CA0000021029080220D210C2001F0A9FB00F000
:101CB000D9F94FF4FA7002F05FF8FEF767FD0020E3
:101CC00095E70026601CC4B20A2CB2DB2848123803
:101CD00090F84E00401C2649123981F84E00084603
:101CE00000E026E090F84E00052802DD1E2081F875
:101CF0004F0000F0CDF800200C2125A21423CDE9DF
:101D00000021029080220D210C2001F079FB00F0CF
:101D1000A9F900202149086000F0BAF8002230211A
:101D2000382000F0C3FA01201D4908701DA001F001
:101D3000B9FDFEF707FC012059E70000050000206F
:101D40007263353232206F6B0D0A000007000020ED
:101D50000C00002012000020E20000200D0ABFA8A5
:101D6000256420B5C4D0F2C1D0BAC5A3BA00000022
:101D70009200002025783D257820202020000000BA
:101D8000524649443A2564C6A5C5E4B3C9B9A6007C
:101D9000BFA8C6ACB4EDCEF300000000B4012242EF
:101DA000040000200A0000000EB500F071F80020C9
:101DB0000C210DA20B46CDE90021029080220146A4
:101DC00001F01EFB00200C210BA20B46CDE90021E7
:101DD00002908022342101F013FB00F043F940F619
:101DE000B83001F0C9FF0EBDD6C7C4DCC3DCC2EBFE
:101DF000CBF8CFB5CDB30000323032332D31302D9A
:101E00003136200000BFFEE77047000070B50021AA
:101E100000230F22C47804B3154C246804F4E06452
:101E2000C4F5E064210AC1F10403CA40447804FA0D
:101E300003F184781440214309010E4C0678A15522
:101E4000047804F01F050124AC4005786D11AD0045
:101E500005F1E025C5F8004109E0047804F01F050C
:101E60000124AC40044D0678761145F8264070BD3B
:101E70000CED00E000E400E080E100E002490143F5
:101E8000024A1160704700000000FA050CED00E006
:101E900070B500240CE0002506E00020074901EBA6
:101EA000C5010855681CC5B2802DF6DB601CC4B2A4
:101EB000082CF0DB00F0D6F870BD0000F400002024
:101EC00070B500240CE0002506E00020074901EB76
:101ED000C5010855681CC5B2802DF6DB601CC4B274
:101EE000082CF0DB00F0BEF870BD0000F40000200C
:101EF000F0B5144600267F2801DC3F2900DDF0BD47
:101F00000B46CF1701EB5777FF10C7F10707FAB25F
:101F1000CF1701EB5777FF10A1EBC707FDB2C5F153
:101F200007070123BB40DEB24CB10A4B03EBC003F1
:101F30009B5C3343074F07EBC007BB5408E0054BDE
:101F400003EBC0039B5CB343024F07EBC007BB54DA
:101F500000BFD4E7F40000202DE9F04706460F4605
:101F600090469946DDF820A034460CE03D4606E058
:101F7000524629462046FFF7BBFF681CC5B24D45B7
:101F8000F6DD601CC4B24445F0DDBDE8F08710B555
:101F9000FFF744F80021AE2000F0C8F90021D52059
:101FA00000F0C4F90021502000F0C0F90021A82061
:101FB00000F0BCF900213F2000F0B8F90021D32047
:101FC00000F0B4F90021084600F0B0F900214020EB
:101FD00000F0ACF900218D2000F0A8F900211420B8
:101FE00000F0A4F90021202000F0A0F90021022037
:101FF00000F09CF90021A12000F098F90021C020F8
:1020000000F094F90021DA2000F090F9002112206C
:1020100000F08CF90021812000F088F90021EF20E8
:1020200000F084F90021D92000F080F90021F1208E
:1020300000F07CF90021DB2000F078F9002130204D
:1020400000F074F90021A42000F070F90021A6200E
:1020500000F06CF90021AF2000F068F9FFF718FFDD
:1020600010BD000070B507241AE004F1B001C8B239
:10207000002100F05BF90021084600F057F900212B
:10208000102000F053F9002507E0074901EBC501D6
:10209000085D012100F04AF96D1C802DF5DB641EFE
:1020A000002CE2DA70BD0000F40000202DE9F84FAA
:1020B00080460F4616461C46BA462046E31704EBF8
:1020C0005373DB1021464FEAE47C04EB5C7C4FEA5F
:1020D000EC0CA4EBCC0CBCF1000F02D04FF0010CC7
:1020E00001E04FF0000C6344224604EBD27C4FEA3F
:1020F0006C0C03FB0CF303F0FF0BA6F12000C6B23F
:1021000000254EE00C2C07D106EB4600274901EBD9
:102110008000405D009013E0102C05D1244800EBB6
:102120000610405D00900BE0182C07D106EBC600AE
:10213000204901EB8000405D009001E0BDE8F88F90
:102140004FF0000927E0009800F0800028B13946E0
:1021500040460A9AFFF7CCFE09E00A9808B9012028
:1021600000E00020024639464046FFF7C1FE0098D5
:102170004006000E0090781CC7B2A7EB0A00A042F0
:1021800005D1574608F1010000F0FF0806E009F10B
:10219000010000F0FF09B9F1080FD4DB00BF681C93
:1021A000C5B25D45AEDB00BFC8E7000012620008A3
:1021B00086660008766C00082DE9FF4F81B007465F
:1021C00091461E460E9D4FF0000A002439E0301B58
:1021D000401EC1B20A2001F053FFB9FBF0F00A2102
:1021E000B0FBF1F201FB1208BAF1000F16D1701E1C
:1021F000A04213DDB8F1000F0ED10120AB4605EB74
:10220000DB71491001FB04710090C8B22B462022FB
:102210000299FFF74BFF12E04FF0010A0120AB4695
:1022200005EBDB71491001FB04710090C8B208F1A5
:102230003001CAB22B460299FFF738FF00BF601C7D
:10224000C4B2B442C3DB05B0BDE8F08FF8B50646B2
:102250000F4615461C4621E004EBD4714910C1F12C
:102260008001B14202DA00263819C7B2C4F1400039
:10227000B84204DA002006460746FFF709FE0120AF
:1022800000902A78234639463046FFF70FFF204654
:1022900004EBD07106EB6101CEB26D1C28787E286C
:1022A00002DC28782028D7DAF8BD00002DE9F84FA5
:1022B00005460C461746A246202000901A4800EB1F
:1022C000471B00262AE01BF806804FF000091FE09C
:1022D00008F0800028B1E1B2E8B20122FFF708FE61
:1022E00004E0E1B2E8B20022FFF702FE4FEA4860E4
:1022F0004FEA1068601C84B2A4EB0A00102803D1D6
:102300005446681C85B206E009F1010000F0FF099F
:10231000B9F1080FDCDB00BF701CC6B20098864222
:10232000D1DBBDE8F88F0000E846000870B505462F
:102330000C461CB1284602F0C1F902E0284602F022
:10234000A7F970BD014908627047000000000E4205
:102350007047000029B1064AD2690243044BDA6192
:1023600004E0034AD2698243014BDA6170470000FE
:102370000010024029B1064A92690243044B9A6157
:1023800004E0034A92698243014B9A61704700005E
:1023900000100240014908607047000040044242BA
:1023A00030B500210022002400232D4D6D6805F07A
:1023B0000C0121B1042905D0082923D105E0294DBC
:1023C000056022E0274D05601FE0254D6D6805F48E
:1023D0007012234D6D6805F48034022505EB92429E
:1023E0001CB9214D554305600BE01D4D6D6805F48A
:1023F00000351DB11C4D5543056002E0194D554394
:10240000056002E0174D056000BF00BF144D6D6808
:1024100005F0F0010909154D6B5C0568DD4045606C
:102420000F4D6D6805F4E061090A104D6B5C45685D
:10243000DD4085600A4D6D6805F46051C90A0B4D99
:102440006B5C4568DD40C560054D6D6805F4404135
:10245000890B074D6B5CC568B5FBF3F5056130BDB5
:102460000010024000127A0000093D005D000020CB
:102470006D00002010B501460022002300204A1103
:10248000012A02D1094C236806E0022A02D1074C36
:10249000236A01E0054C636A01F01F0201249440A5
:1024A0001C400CB1012000E0002010BD00100240D3
:1024B00000210B4A11700A4A203A82F820100128A4
:1024C00002D0042808D103E00121054A117004E07C
:1024D0000521034A117000E000BF00BF70470000F3
:1024E0002010024001490860704700003C0442424D
:1024F0000249096A0143014A116270470010024013
:10250000024909888143014A11807047042800402C
:102510000348008840F0100001490880704700001F
:1025200004280040034800884FF6EF710840014935
:10253000088070470428004070B50026002400255C
:1025400000F07AF806463848B6FBF0F437480088C1
:10255000A0423CD035490C8040F2B27510E02846CC
:10256000FEF712FE40B1B4F5B77F02D3A4F5B774FD
:1025700004E0681C85B206E0A4F26D14681C85B204
:10258000B4F5B67FEBD800BF29488580002516E05A
:1025900027498888FEF7F8FD30B1012D04D11D2CA4
:1025A00001D31D3C09E00CE02248405DA04203D865
:1025B0002048405D241A00E003E0681C85B21C2C12
:1025C000E6D200BF681C1A498871601CC8711648A1
:1025D000B6FBF0F100FB11644FF46160B4FBF0F066
:1025E000134908704FF46160B4FBF0F100FB114037
:1025F0003C21B0FBF1F00E4948704FF46160B4FB30
:10260000F0F100FB11403C21B0FBF1F201FB1200A4
:10261000074988700B46DA799979988800F028F88C
:1026200003490872002070BD805101007200002033
:10263000F4040020DE790008002103480188001F0F
:10264000008841EA004070471C28004001460020F5
:10265000064A12880A40D0B2044A121F12880A4061
:1026600012B108B1012000E00020704704280040AA
:102670002DE9F0430446154600BF642094FBF0F0BA
:10268000C3B2642094FBF0F700FB1740C2B20329E9
:1026900008DA501EC2B2012901D10D2102E002293F
:1026A00000D10E2101F1010C4FF01A080CFB08FCBF
:1026B0004FF00A089CFBF8FC4FEAE37803EB9878AC
:1026C0004FEAA8084FF0020909FB138890444FEA2B
:1026D000E27902EB997908EBA908C444AC44ACF167
:1026E000010C0CF0FF06072096FBF0F700FB1760CB
:1026F000C0B2BDE8F08300000EB50120FFF7A6FFD1
:1027000000281BD0FFF718FF1C4880781B49497828
:102710001A4A1278CDE9002102901848C3798279CB
:10272000818817A001F0BEF81448017A1CA001F0BE
:10273000B9F81248017A1DA001F0B4F80220FFF7A1
:1027400085FFA0B10220FFF7DBFEFFF7F5FE0B4887
:1027500080780A494978094A1278CDE90021029027
:102760000648C3798279818812A001F09BF8052080
:10277000FFF7C6FE00F028F90EBD0000F4040020AB
:102780005254432054696D653A25642D25642D25E6
:10279000642025643A25643A25640D0A000000008F
:1027A0005765656B3A25640D0A000000D6DC3A25B2
:1027B000640D0A00416C61726D2054696D653A25A3
:1027C000642D25642D25642025643A25643A25640A
:1027D0000D0A000029B1064A12880243044B1A80F0
:1027E00004E0034A12888243014B1A8070470000BC
:1027F000002800401CB5002401214FF0C050FFF715
:10280000A9FD0120FFF79EFD0420FDF7B7FE4AF267
:10281000A001884240D0FDF7A8FE0120FFF748FE46
:1028200004E0601CC4B20A2001F0A6FA4120FFF7C0
:1028300021FE08B9FA2CF4DBFA2C01DB01201CBDC7
:102840004FF48070FFF754FE0120FFF74BFE00F0BD
:10285000BBF800F0C3F801210846FFF7BBFF00F00A
:10286000B3F8FFF755FE47F6FF7000F09DF800F053
:10287000ABF83720222111230722CDE900100421D3
:102880004FF4FD6000F026F8FFF74CFE4AF2A0017D
:102890000420FDF781FE07E000F0A0F801210846C2
:1028A000FFF798FF00F090F800F004F8FFF744FEFF
:1028B0000020C4E708B503208DF8000000208DF843
:1028C00001008DF8020001208DF803006846FFF733
:1028D0009DFA08BD2DE9F05F06460F4690469946E1
:1028E000DDE90AAB002440F2B270864203DB40F619
:1028F0003300864202DD0120BDE8F09F40F2B27550
:102900000AE02846FEF740FC10B11C48044401E0F0
:102910001B480444681C85B2B542F2DB781EC7B27E
:10292000002510E01748405D40F2A321484304EB26
:10293000C0143046FEF728FC18B1012D01D1124811
:102940000444681C85B2BD42ECDBA8F1010040F2F2
:10295000A321484304EBC014C9EB4910C0EB092084
:1029600004EB0014CAEB0A1004EB80045C4420461C
:1029700000F00CF800F028F80020BDE70085E20127
:102980008033E101DE7900088051010000B5024684
:10299000FFF7BEFD100C03490880091D0A80FFF7F0
:1029A000C1FD00BD1828004000B50246FFF7B0FD8C
:1029B000C2F3034003490880091D0A80FFF7B2FDF6
:1029C00000BD00000828004000BF0348008800F058
:1029D00020000028F9D070470428004007480088EC
:1029E0004FF6F77108400549088000BF034800888A
:1029F00000F008000028F9D07047000004280040CB
:102A000070B5044604210948FEF7B2F87E2101EAB8
:102A1000440141F0800000F059F800F029F8054623
:102A200004210248FEF7A6F8284670BD00080140C0
:102A300008B58020ADF8000048208DF803006946F5
:102A40000148FEF701F808BD000C014008B58020E0
:102A5000ADF8000003208DF8020010208DF803006F
:102A600069460248FDF7F0FF08BD0000000C014078
:102A700070B50025002400201249086000BF1CE04A
:102A800000201049091D0860052001F09BF9012074
:102A90000D49C1F88C01052001F094F909487838F6
:102AA0000068012804D1C4F1070188402843C5B259
:102AB000002004490860601CC4B2082CE0DB2846F2
:102AC00070BD00008C0121420000214270B5054616
:102AD0000026002400201749086000BF26E0C4F14A
:102AE000070101208840284020B101201149091D1B
:102AF000086003E000200F49091D0860052001F06F
:102B000061F901200B490860052001F05BF90A48D2
:102B1000D0F81401012804D1C4F1070188403043E2
:102B2000C6B2002003490860601CC4B2082CD6DB82
:102B300070BD00008C0121420000214208B5012136
:102B40000C20FFF717FC10208DF8030003208DF8F0
:102B500002005C20ADF8000069460948FDF774FFEB
:102B600028208DF803002020ADF8000069460448B5
:102B7000FDF76AFF04210248FDF7FCFF08BD0000D5
:102B80000008014030B503460C461546002207E018
:102B9000184600F008F824F812009B1C501C82B262
:102BA000AA42F5DB30BD0146088870472DE9F05F89
:102BB00080468A461746B8F1006F02D333488045F5
:102BC00001D3BDE8F09FFDF7B1FEA8F1006B4FEA1D
:102BD000DB25CBF34909C9F58064A74200DC3C46FC
:102BE0004DE04FF0006101EBC5204A142849FFF782
:102BF000C9FF00260BE009EB0600254931F810005B
:102C00004FF6FF71884200D003E0701C86B2A642E6
:102C1000F1DB00BFA6421BDA4FF0006101EBC520DB
:102C2000FDF71AFE002608E03AF8160006EB090147
:102C3000174A22F81100701C86B2A642F4DB4FF04E
:102C4000006101EBC5204A14114900F023F804E0AB
:102C500022465146404600F01DF8A74200D10FE041
:102C60006D1C4FF000090AEB440AA044381B87B2E0
:102C7000B7F5806F02DD4FF4806400E03C46B0E7BA
:102C800000BFFDF729FE00BF9BE700000000080819
:102C9000C60500202DE9F04105460E4617460024E2
:102CA00007E036F814102846FDF720FEAD1C601C26
:102CB00084B2BC42F5DBBDE8F081704770B50546D3
:102CC0000C4600262846FFF79BFE064646EA04010E
:102CD000284600F0D1FD70BD2DE9F0418AB00026F4
:102CE000002500240027A0469DA103C9CDE90801C5
:102CF0009BA103C9CDE90601FFF7CAF800200C210A
:102D000099A20B46CDE900210290802210210A20D1
:102D100000F076FB00200C2197A20B46CDE90021A4
:102D2000029080221C210A2000F06AFB00200C2166
:102D300095A20B46CDE900210290802228210A208D
:102D400000F05EFB00200C2193A20B46CDE9002190
:102D50000290802234210A2000F052FB0020102132
:102D600091A20B46CDE90021029080220146052068
:102D700000F046FB721C8EA103A800F0A3FD00200A
:102D8000102103AA0B46CDE90021029080223021B8
:102D9000052000F035FBFFF765F9A6E0FEF780FAA5
:102DA0000546681C00287AD00120824908704FF03F
:102DB0000008112D72D2DFE805F071090A0B141D0D
:102DC0001E1F283334353E44685B700000BF00BFCF
:102DD00005F1300008A908552A2006A90855641CE9
:102DE0005CE0FFF755F84FF4FA7000F0C5FF0AB049
:102DF000BDE8F08100BF00BF05F12F0008A908550C
:102E00002A2006A90855641C48E0002C07DD202173
:102E1000601E044608AA1154202006A908553DE06A
:102E200000BF00BF05F12E0008A908552A2006A9F9
:102E30000855641C32E00FB9012000E0002007466D
:102E40002CE0721C5AA103A800F03CFD00201021C8
:102E500003AA0B46CDE900210290802230210520F3
:102E600000F0CEFA0EB9012000E00020064600BFB7
:102E700004E0202008A9085506A90855201EA4F141
:102E80000104F6D1002409E009E0302008A9085522
:102E90002A2006A90855641C00E027E000BF454829
:102EA0000078012811D147B90C2306AA0021462039
:102EB000FFF7CCF9FFF7D6F807E00C2308AA0021AA
:102EC0004620FFF7C3F9FFF7CDF808F101001FFA1C
:102ED00080F8322098FBF0F100FB118028B9FEF752
:102EE000D7FF01203349087081E757E78EB9324890
:102EF00008994160BDF82410018181725022014679
:102F00002E48FFF753FE2C49091D2DA000F0CAFCE6
:102F100011E029480B3008990160BDF82410818028
:102F20008171502224492548FFF740FE2249091D9E
:102F300025A000F0B7FCFEF7ABFF0020102124A273
:102F40000B46CDE9002102908022302100F058FA92
:102F5000FFF788F84FF47A7000F00EFF00BF46E7E5
:102F6000202020202020000020312020203220207E
:102F70002033202042636B00203420202035202085
:102F80002036202044656C00203720202038202067
:102F90002039202044697300436C722020302020A7
:102FA00043686720204F4B00D0C2C3DCC2EB000057
:102FB00025643A00040000208000002000F0000892
:102FC0007077643D25730000707764323D2573008F
:102FD000C3DCC2EBD0DEB8C4B3C9B9A620A3A1003C
:102FE00010B500F001F810BD0CB500200190009064
:102FF0003348006840F480303149086000BF3048F1
:10300000006800F4003000900198401C0190009886
:1030100018B90198B0F5A06FF1D12948006800F403
:10302000003010B10120009001E0002000900098D5
:10303000012843D12348006840F01000214908606E
:103040000846006820F0030008600846006840F069
:10305000020008601A4840681949486008464068FC
:1030600048600846406840F4806048600846406810
:1030700020F47C1048600846406840F4E81048603E
:103080000846006840F08070086000BF0C48006887
:1030900000F000700028F9D00948406820F00300D3
:1030A000074948600846406840F00200486000BF99
:1030B0000348406800F00C000828F9D10CBD00005E
:1030C00000100240002002402DE9F04F8FB0002098
:1030D0000D900024B2488688877990F80780007A9E
:1030E0000E90AF4890F8009090F801A090F802B0D0
:1030F000FEF7CEFE00200C21AAA20B46CDE900214E
:10310000029080222621622000F07AF900200C2112
:10311000A5A20B46CDE9002102908022342100F0C7
:103120006FF9FEF79FFF1BE10D98401C80B20D90D8
:10313000FEF7B6F805460C2D01D1012000E0002075
:103140000D991E2901D1012100E00021084320B181
:10315000FEF79EFE0FB0BDE8F08F0D2D3AD1072C83
:1031600037D2DFE804F0040C141C24292E00B9F136
:10317000000F03DDA9F1010000F0FF0929E0BAF119
:10318000000F03DDAAF1010000F0FF0A21E0BBF10E
:10319000000F03DDABF1010000F0FF0B19E00E980A
:1031A000002803DD0E98401EC0B20E9011E0002EE4
:1031B00001DD701E86B20CE0002F01DD781EC7B263
:1031C00007E0B8F1000F03DDA8F1010000F0FF08EF
:1031D00000BF00BF0E2D3CD1072C39D2DFE804F030
:1031E000040C141C242B3000B9F1170F03DA09F179
:1031F000010000F0FF092BE0BAF13B0F03DA0AF1FE
:10320000010000F0FF0A23E0BBF13B0F03DA0BF1F2
:10321000010000F0FF0B1BE00E98072803DA0E9860
:10322000401CC0B20E9013E040F63300864201DA33
:10323000701C86B20CE00C2F01DA781CC7B207E0D4
:10324000B8F11F0F03DA08F1010000F0FF0800BF1A
:1032500000BF0F2D05D1072C00DA641C072C00D10C
:103260000024102D00D17CE005210D9890FBF1F297
:1032700001FB120088BB072C37D2DFE804F0040BF7
:10328000121920272F0018234CA200210846FEF710
:10329000DDFF2AE0182349A200212420FEF7D6FFF3
:1032A00023E0182345A200214820FEF7CFFF1CE0B1
:1032B0000C2343A219466E20FEF7C8FF15E00C232D
:1032C00040A21A214420FEF7C1FF0EE00C233BA2CE
:1032D0001A216220FEF7BAFF07E009E00C2337A2AB
:1032E0001A217420FEF7B2FF00BF00BFFEF7BAFE3E
:1032F00005210D9890FBF1F201FB120068BB002044
:103300000D9053464A4631A103A8CDF800B000F015
:10331000D9FA182303AA00210846FEF797FF3B4677
:1033200032462EA103A8CDF8008000F0CBFA0C2382
:1033300003AA1A214420FEF789FF2C490E9851F860
:1033400020202BA103A800F0BDFA0C2303AA1946E4
:103350006E20FEF77BFFFEF785FE012000F00CFDDE
:10336000E2E600BF4B46424639463046CDE900AB67
:10337000FFF7B0FAFEF78CFD002010211DA20B46CE
:10338000CDE90021029080223021142000F038F88D
:10339000FEF768FE4FF47A7000F0EEFC00BFD9E64D
:1033A000F40400203C2D2D00BCF52020BCD32020AF
:1033B00020C7D0BBBB2020C8B7B6A8002020000083
:1033C0002020200020202020000000002530326432
:1033D0003A253032643A25303264000025303464B6
:1033E0002D253032642D253032640000400000204D
:1033F00025730000C9E8D6C3B3C9B9A6A3A10000CC
:103400002DE9FC4F07460E4691469A46DDE90B45ED
:10341000B846B3460020019052E0019870BB207876
:10342000802802DD012001904AE005EBD57108EB10
:103430000902A2EB6101B94202DA701986B247466D
:103440000BEB0A00401BB04200DA3CE020780D286C
:1034500004D1701986B24746641C07E00120009031
:103460002278F1B2F8B22B46FEF720FE641C284603
:1034700005EBD07107EB61018FB221E00C2D04D078
:10348000102D0AD0182D18D10FE00023012231464B
:1034900038460094FDF770FB0FE00023012231460F
:1034A00038460094FDF714FC07E000230122314662
:1034B00038460094FDF7B0FC00BF00BFBDE8FC8FAC
:1034C00020780028A9D100BF00BFF7E710B550222F
:1034D00013491448FFF756FB114800681249884207
:1034E00019D050210E48FCF724FE0F480C49086003
:1034F0000EA10B48001DFCF73BFE0EA108480B3047
:10350000FCF736FE502206490648FFF74FFB0BA09A
:1035100000F0C8F902E00EA000F0C4F910BD0000F0
:103520008000002000F0000869B601003132333419
:10353000353600003131323233330000B3F5CABCC6
:10354000BBAFC5E4D6C3B3C9B9A60D0A00000000DD
:10355000BBB6D3ADCAB9D3C3D6C7C4DCC3DCC2EBD8
:10356000CBF80D0A00000000042808D14FF0E0213C
:10357000096941F004014FF0E022116107E04FF0CA
:10358000E021096921F004014FF0E0221161704748
:103590007047000010B504466FF00400FFF7E4FF29
:1035A000E11704EB5171C1F3C701074A11701046CE
:1035B000007800EB4001C1EBC0104FF6FF7101EA4B
:1035C000C0000249088010BD740000207600002071
:1035D00010B51348006840F0010011490860084622
:1035E0004068104908400E494860084600680E4986
:1035F00008400B4908600846006820F480200860F5
:103600000846406820F4FE0048604FF41F008860C0
:10361000FFF7E6FC4FF000600449086010BD0000B1
:10362000001002400000FFF8FFFFF6FE08ED00E08A
:1036300010B540F225511D4800F057F810B31B4853
:1036400000F00EF9C4B21A48008800F40040C8B96E
:103650001748008800F4804060B13A2C03D0002065
:103660001349088020E01248008840F400401049C7
:10367000088019E0212C06D10D48008840F48040D4
:103680000B49088010E00A480088C0F30D00094982
:103690000C5407480088401C0549088008460088EB
:1036A000C72801DD0020088010BD0000003801405F
:1036B0007C000020FE04002021B1828942F40052E7
:1036C000828104E082894DF6FF731A40828170473F
:1036D00002460020B1F5007F00D100BF13880B40E7
:1036E0000BB1012000E00020704770B502460024B5
:1036F00000230025002040F66A16B14200D100BF29
:10370000C1F3421501F01F03012606FA03F3012D50
:1037100002D19689334006E0022D02D1168A334049
:1037200001E0968A33400C12012606FA04F416884A
:10373000344013B10CB1012000E0002070BDF0B5A1
:103740000346002400260025002040F66A17B942EF
:1037500000D100BF1846C1F3421401F01F06012733
:1037600007FA06F5012C01D10C3004E0022C01D13E
:10377000103000E014301AB107682F43076002E0F0
:103780000768AF430760F0BD2DE9F04786B00546F6
:103790000E460024A24600BFA1460027B08900B112
:1037A00000BF2F462C8A4CF6FF700440F08804437B
:1037B0002C82AC894EF6F3100440B088318908435E
:1037C000718908430443AC81AC8A4FF6FF40044042
:1037D000B0890443AC8201A8FEF7E2FD1F4887428E
:1037E00002D1DDF810A001E0DDF80CA0A88900F4FA
:1037F000004040B10AEBCA0000EB0A1031684900F2
:10380000B0FBF1F807E00AEBCA0000EB0A103168E0
:103810008900B0FBF1F86420B8FBF0F00401200946
:10382000642101FB1089A88900F4004040B13220D6
:1038300000EBC900B0FBF1F000F00700044308E022
:10384000322000EB09106421B0FBF1F000F00F0012
:1038500004432C8106B0BDE8F08700000038014029
:1038600001468888C0F308007047C1F308028280CF
:10387000704700BFFEE7000070B504460D46042106
:103880000748FDF775F97E2101EA4400FFF71EF9AC
:103890002846FFF71BF904210148FDF76BF970BDBD
:1038A000000801400FB4054B10B503A9044A029863
:1038B00000F02CF810BC5DF814FB0000113E00086D
:1038C000780000200FB4084B10B504A902AA039891
:1038D00000F01CF8044602A9002000F048FA204637
:1038E00010BC5DF814FB00006F3D000802E008C842
:1038F000121F08C1002AFAD170477047002001E06A
:1039000001C1121F002AFBD1704700002DE9FF4FB3
:103910008DB00F460546002606E025280BD0DDE9D0
:103920000F1290476D1C761C28780028F5D111B035
:103930003046BDE8F08F0024A246A1460122EC49A2
:1039400000E0044315F8013F203B02FA03F008426F
:10395000F7D128782A2810D06FF02F022878A0F10C
:103960003001092914D80AEB8A0102EB410144F025
:10397000020400EB010A6D1CF0E701CF5FEA000AC8
:1039800003D544F40054CAF1000A44F002046D1C4B
:1039900028782E2817D115F8010F44F004042A289E
:1039A0000ED06FF02F022878A0F1300109290AD833
:1039B00009EB890102EB410100EB01096D1CF2E703
:1039C00057F8049B6D1C28786C280FD006DC4C2817
:1039D00017D068280DD06A2814D104E0742810D0BC
:1039E0007A280FD10DE044F400140AE044F4801466
:1039F00001E044F440146978814202D104F5801456
:103A00006D1C6D1C2A786E2A1FD00CDC632A31D005
:103A100004DC002A8BD0582A11D1A3E0642A68D094
:103A2000692A0CD165E0732A2ED004DC6F2A73D08A
:103A3000702A04D19BE0752A6FD0782A6ED0104688
:103A4000DDE90F129047761C50E1C4F302500228C2
:103A500006D0032809D0042801CF09D0066045E12B
:103A600001CFF117C0E9006140E101CF06803DE1DF
:103A700006703BE117F8040B8DF8000000208DF86C
:103A80000100EB46012003E057F804BB4FF0FF3084
:103A900061074FF0000102D40DE008F101018846F2
:103AA00049450FDA8045F8DB1BF808100029F4D1EE
:103AB00008E008F1010188468142FADB1BF8081092
:103AC0000029F6D1DDE90F23AAEB08008146214643
:103AD00000F036F9304400EB080604E0DDE90F128F
:103AE0001BF8010B9047B8F10108F7D22146484670
:103AF000F7E00A21C4F302534FF0000B0891022BA8
:103B000004D001CFC117032B09D00AE0FF1D27F015
:103B10000707F7E8020108E032E01FE020E000B20A
:103B2000C117042B01D140B2C117031E71F100036C
:103B300007DA4FF0000CD0EB0C006CEB01012D23E9
:103B400002E0230504D52B238DF82430012303E064
:103B5000E30701D02023F7E7984658E00A2110E058
:103B600010210EE010204FF0000B08900CE0102107
:103B70004FF0000B44F004044FF00809089103E0F3
:103B800008214FF0000B0891C4F30253022B04D01C
:103B900001CF0021032B06D006E0FF1D27F0070709
:103BA000F7E8020103E080B2042B00D1C0B24FF06D
:103BB000000823072BD5702A07D0DDF820C08CF031
:103BC000100C5CEA0B0C05D00EE040238DF824307D
:103BD000012308E050EA010306D030238DF8243099
:103BE0008DF8252002239846DDF820C08CF0080CC3
:103BF0005CEA0B0C0BD150EA010301D1630706D537
:103C000030238DF824304FF00108A9F10109582A1A
:103C100004D038A20B9208AA0A920BE03AA2F9E764
:103C20005B46089AFCF7ADFA0B9B9B5C0A9A521E06
:103C30000A92137050EA0102F2D10A98ADEB00002B
:103C400000F1200B600702D524F4803401E04FF02E
:103C50000109D94502DDA9EB0B0000E0002000EBD3
:103C60000B0141440890AAEB010AE00306D4DDE908
:103C70000F232146504600F063F806444FF0000938
:103C800008E009A911F80900DDE90F12904709F1D0
:103C90000109761CC145F4DBE0030CD5DDE90F23F7
:103CA0002146504600F04CF8064404E0DDE90F12CE
:103CB00030209047761C0899481E08900029F5DCB2
:103CC00008E00A980A990078491C0A91DDE90F1268
:103CD0009047761CBBF10001ABF1010BF1DC2146F2
:103CE0005046DDE90F2300F019F806446D1C1BE671
:103CF00009280100303132333435363738396162C2
:103D00006364656600000000303132333435363785
:103D10003839414243444546000000002DE9F04156
:103D2000044600251E461746880404D405E039469B
:103D30002020B0476D1C641EF9D52846BDE8F081EF
:103D40002DE9F041044600251E469046C80301D5E2
:103D5000302700E02027880404D505E04146384696
:103D6000B0476D1C641EF9D52846BDE8F0810A688D
:103D7000531C0B60107070470146114A12884A4369
:103D80004FF0E0235A6100229A611A46126942F00C
:103D900001021A6100BF4FF0E022106900F0010239
:103DA0001AB100F48032002AF5D04FF0E0221269F7
:103DB00022F001024FF0E0231A6100229A6170475D
:103DC000760000200146114A12784A434FF0E02362
:103DD0005A6100229A611A46126942F001021A6180
:103DE00000BF4FF0E022106900F001021AB100F4A8
:103DF0008032002AF5D04FF0E022126922F0010251
:103E00004FF0E0231A6100229A617047740000208D
:103E100070B504460D46E1B20548FFF726FD00BF28
:103E200080210348FFF754FC0028F9D0204670BDDC
:103E3000003801400EB50026002700244820FFF777
:103E4000A9FB4FF4A060FEF719F84FF4165000F0EC
:103E50003FFBFDF721FCFEF79AF8FDF7B3F9FEF7FB
:103E600017F800F017FBFEF7C5FC07469FB1FEF7F9
:103E70000FF800200C2172A21423CDE9002102903A
:103E800080220D210C20FFF7BBFAFEF7EBF840F67D
:103E9000B830FFF771FFFFF719FBCFE000BFFDF768
:103EA000F7FF002230213820FEF700FA26E000BF9D
:103EB000FCF7A8FC6648007801280AD10020644974
:103EC00008703F23102218210090FEF745F8FEF7F6
:103ED000C9F8FDF7E5F90546681C60B100F0DCF8AB
:103EE0005C4908600846006800B908E000223021FB
:103EF0003820FEF7DBF90120FFF73EFFD7E7FDF79B
:103F0000C7FF00BF00203023142201460090FEF7B7
:103F100023F8032C0DDA002010214FA2CDE9002157
:103F200002902101102380220520FFF769FA002664
:103F300010E00020102148A2CDE900210290E01EEF
:103F40004FF6FF7202EA0011102380220520FFF7CE
:103F500057FA032600211022404850F82600134645
:103F6000CDE90121009080221920FFF749FA0021B4
:103F700010223A4B701C53F820001346CDE9012162
:103F80000090802210211920FFF73AFA0021102218
:103F9000324BB01C53F820001346CDE901210090AC
:103FA000802220211920FFF72BFA00200C212CA2BF
:103FB0000B46CDE90021029080223421FFF720FA40
:103FC000FEF750F800BF38E004222AA12B48FCF786
:103FD000C2F810B9FCF7A4FB61E7FDF761F90546EB
:103FE00045B30D2D04D1002C01DD601EC4B289E75C
:103FF0000F2D04D1032C01DA601CC4B282E70E2D10
:1040000000D14CE7102D15D134B1012C07D0022C72
:1040100008D0032C0CD108E0FCF716F908E0FDF7F6
:10402000C3FE05E0FEF758FE02E0FFF74DF800BFC3
:1040300000BF64E70120FFF79FFEC5E72EE7000001
:10404000525443204352592045525221000000004F
:1040500004000020000000202D3E0000240000206D
:10406000C9CF20B7B5BBD820CFC22020202020C880
:10407000B7B6A8006C6F636B00000000FE04002060
:1040800010B50246012000E050430B1EA1F10104CF
:10409000E1B2F9D110BD00002DE9F04389B000254F
:1040A0000024A04600260027A146D5A207CA06ABD9
:1040B00007C3D3A207CA03AB07C3FDF7E9FEFCF7AA
:1040C000D5FA18B1601E09B0BDE8F083FDF7E0FE37
:1040D00000201021CDA20B46CDE9002102908022C4
:1040E00001460520FFF78CF900200C21C9A20B46E0
:1040F000CDE900210290802210210A20FFF780F9EB
:1041000000200C21C7A20B46CDE90021029080229D
:104110001C210A20FFF774F900200C21C5A20B46D0
:10412000CDE900210290802228210A20FFF768F9BA
:1041300000200C21C3A20B46CDE900210290802271
:1041400034210A20FFF75CF9FDF78CFFEAE0FDF768
:10415000A1FBFDF73BFDBF4908600846006820B998
:104160000020BD4981F84E00ADE7BB48001D00F0BE
:10417000FFF9B849086008460068B8B9FDF7A0FE25
:1041800000200C21B5A21423CDE900210290802249
:104190000D210C20FFF734F9FDF764FF4FF4487050
:1041A000FFF7EAFDFCF7F2FA00208CE7AA480B3093
:1041B00000F0DEF9A749086008460068D8B9002079
:1041C000A54981F84E00FDF77BFE00200C21A7A237
:1041D0000B46CDE90021029080220D210C20FFF733
:1041E0000FF9FDF73FFF4FF44870FFF7C5FDFCF7EF
:1041F000CDFA002067E7FDF753F80546681C002854
:10420000A4D001209D4908704FF00009681C0028C7
:1042100063D00120087000BF112D5DD2DFE805F0EA
:104220005C090A0B141D1E1F283334353E465347C4
:104230005B0000BF00BF05F1300006A908552A2029
:1042400003A90855641C47E0FDF722FE4FF4FA70FD
:10425000FFF792FD4FF0FF3035E700BF00BF05F1DB
:104260002F0006A908552A2003A90855641C33E02D
:10427000002C07DD2021601E044606AA11542020D0
:1042800003A9085528E000BF00BF05F12E0006A9CC
:1042900008552A2003A90855641C1DE0B8F1000F39
:1042A00001D1012000E00020804615E000BF04E0BD
:1042B000202006A9085503A90855201EA4F10104D1
:1042C000F6D1002408E0302006A908552A2003A9C9
:1042D0000855641C00E026E000BF6848007801280B
:1042E00011D1B8F1000F06D10C2303AA002135200B
:1042F000FDF7ACFF05E00C2306AA00213520FDF7F1
:10430000A5FFFDF7AFFE09F101001FFA80F90A20B1
:1043100099FBF0F100FB119020B9FDF7B9FD4FF0CA
:10432000FF30D0E613E700240EE006A8015D4A48FE
:10433000001D805D814202D1701C86B200E0002623
:10434000062E00D102E0641C0A2CEEDB00BF002424
:104350000EE006A8015D40480B30C05D814202D1ED
:10436000781C87B200E00027062F00D102E0641C11
:104370000A2CEEDB00BF062E01D1012000E0002058
:10438000062F01D1012100E00021084340B1FCF7D4
:10439000FDF9FDF77DFD00202F4981F84E0092E6E2
:1043A0002D4890F84E00401C2B4981F84E000846DD
:1043B00090F84E00052802DD1E2081F84F00FDF721
:1043C00067FD002010212EA20B46CDE900210290AE
:1043D000802230212D20FFF713F8FDF743FE002047
:1043E0002A49086001202A49C1F8800140F2DC50C6
:1043F000FFF7C2FCFDF74CFD4FF0FF3063E6000015
:10440000202020202020202020200000C3DCC2EB20
:10441000A3BA000020312020203220202033202089
:1044200042636B00203420202035202020362020BD
:1044300044656C002037202020382020203920209F
:1044400044697300436C722020302020436C72203A
:10445000204F4B000000002080000020C0B6D1C0DB
:10446000C3DCC2EB31A3BAD5FDC8B700C0B6D1C01A
:10447000C3DCC2EB32A3BAD5FDC8B70004000020EC
:10448000C3DCC2EBB4EDCEF3A3A100008401214252
:10449000000021423EB500240020102108A20B4656
:1044A000CDE90021029080220C211020FEF7A8FF08
:1044B0004FF4FA60FFF760FCFDF7D4FD3EBD00004D
:1044C000D6C7C4DCC3DCC2EBCBF8CFB5CDB300009C
:1044D00010B586B00446012144F20400FDF74AFFFE
:1044E0004FF40070ADF8140003208DF8160018206A
:1044F0008DF8170005A91C48FCF7A6FA4FF4806058
:10450000ADF8140004208DF8170005A91648FCF733
:104510009BFA25208DF8000003208DF801008DF80E
:10452000020001208DF803006846FDF76FFC01943E
:104530000020ADF80800ADF80A00ADF80C00ADF8A9
:1045400010000C20ADF80E0001A90848FFF71CF977
:10455000012240F225510548FFF7F1F801210348F7
:10456000FFF7AAF806B010BD00080140003801406E
:104570003EB50546062229463648FBF7ECFD70B9E4
:104580000020354908803348FBF7DEFD044621460C
:104590003048FBF7CEFD0020304908803EBD0422A4
:1045A0002FA12C48FBF7D7FD58B900202A490880D5
:1045B000C8212848FBF7BDFD0020284908800120BC
:1045C000ECE725480078002833DD27A0FFF76AF9DB
:1045D000002405E01F48015D26A0FFF763F9641C75
:1045E0001D480078A042F5DC23A0FFF75BF91B48CB
:1045F0000088401C194908801748008800F40040D2
:10460000B0B1002014490880FDF75AFC00200C21AD
:104610001AA20B46CDE90021029080220D210C2028
:10462000FEF7EEFEFDF71EFD4FF44870FFF7A4FB0A
:1046300000BF0A480088052809DD002006490880D7
:10464000C8210448FBF775FD0020044908800120BB
:10465000A4E70000FE0400207C0000207E00002073
:104660004C4F434B00000000BDD3CAD5CAFDBEDD90
:10467000A3BA0000256300000D0A0000C0B6D1C037
:10468000C3DCC2EBA3BAB4EDCEF3A3A100000000DB
:1046900010B50446FCF71AFD7820FCF7E5FCFCF7A2
:1046A0004DFD0020FCF7E0FCFCF748FD2046FCF740
:1046B000DBFCFCF743FDFCF725FD10BD10B50446FF
:1046C000FCF704FD7820FCF7CFFCFCF737FD402019
:1046D000FCF7CAFCFCF732FD2046FCF7C5FCFCF7F2
:1046E0002DFDFCF70FFD10BD0000000001FF1FFFB6
:1046F0007FFF63FFC3FFC383C383C3FF63FF7FFFEA
:104700001FFF01FF0000000001FF01FF01FF01FF8B
:104710000181018101C71FFF7FFF71FFC0FFC00042
:10472000C00070003E001E00C9CF0800080008004D
:1047300008000FC008000800080008000800080072
:10474000FFE0CFC20000FFE0080008000A000900F7
:10475000088008400840080008000800BCF500A0D8
:104760000080BFE060802E8020A02EA02AC06AC0FA
:10477000AEA021604220BCD32000200021E0FD201B
:1047800025202520252025202520452045E099208D
:10479000B3C9028002407FE0420042007A404A40B2
:1047A0004A8049205AA044608820B9A6020002002D
:1047B000FA0027E022202220222022203C20C420B0
:1047C000082010C0CBF84100692085400100EFE0CF
:1047D00048204920E9204920428064405820B6A85A
:1047E00008000400FFE080200000FFE00400240037
:1047F00027C0240054008FE0C8B70200F3C0244053
:10480000208047E07520D7E0552057E075205520DF
:104810000860C8CF4100210001000100E100210033
:10482000228022802A80344024400820B6A8080034
:104830000400FFE080200000FFE00400240027C007
:10484000240054008FE0CAE421002280F4404BA0F1
:10485000A000FE202AA03EA0EAA02EA02A202A60C6
:10486000C8EB30000800040004000A000A000A0037
:1048700011001100208040408020C9BE0020EE20A1
:10488000AAA0AAA0AAA0FFA0AAA0AAA0AAA0AA2003
:10489000AA206660B3FD0100E280A440A820C7C042
:1048A000C100AFE0A100A540C92091208300D6B887
:1048B000242024C02700F42023E0200037E0E42057
:1048C00027E0242027E06420CEC6220021004FE00C
:1048D0009440E44024404280F28001003280C44091
:1048E0000820CAA30C20702010A0FEA054A0D6A0BF
:1048F00054A0D6A038A0542092201060D3E0040029
:104900000A0011002080DF60040004007FC0040062
:10491000248044408C20B7B540E02F0008000FE011
:10492000E8202A20294028802940322050008FE0AA
:10493000BBD800007FE0402040204F204920492084
:104940004F20402040207FE04020C7E50200BFE02C
:1049500042001FC00200BFE050401FC010405FC0B7
:10496000904010C0BFD508000400FFE091202080D7
:10497000404000007FC0040004000400FFE0C7D0F6
:10498000200027E021203920E120212021202120A2
:104990002A203220242008C0BBBB22002380248090
:1049A000F90027C025403540E5402FE02280244013
:1049B0006820C2BC7F8000803F800080FFE0040050
:1049C00044402E8015002480C4600C00C8EB3000E9
:1049D0000800040004000A000A000A001100110087
:1049E000208040408020B3C9028002407FE0420026
:1049F00042007A404A404A8049205AA044608820B8
:104A0000B9A602000200FA0027E02220222022207C
:104A100022203C20C420082010C0CAB10040F04031
:104A2000904097E09040F040924091409140F0409B
:104A3000904001C0BCE44FE0202000205FA050A0C7
:104A400050A05FA050A050A05FA0402040E0C7EB66
:104A500082005FE002000FC0C2005FE048404FC02C
:104A600048404FC0684048C0B7C541002100010020
:104A7000F9E042404540794049404940488049403A
:104A80009A20C8EB30000800040004000A000A0065
:104A90000A0011001100208040408020D0C2102068
:104AA0007DC00100450029E0FD4011407D401140DE
:104AB000554092403440BFA8080008000FC00800CD
:104AC0000800FFE008000E00098008400800080008
:104AD000C6AC01002100210021003FE020002000A1
:104AE0003F802080408040808080D5FD00007FC0D6
:104AF000040004000400240027C024002400240033
:104B00002400FFE0D4DA08000800FFE010001100E4
:104B100021006100A7C02100210021002FE0D6C79D
:104B200040007DE091201120FD2029E04400BFC01D
:104B300020403FC020403FC0C4DC22404A80FB00F0
:104B4000022079E048007A004A407A804B204A20CF
:104B500059E0C3C54FE020200020402040204020E5
:104B60004020402040204020402040E0CFB503C0FE
:104B70007C00080010803F00060018407FE0042001
:104B8000248044408C20CDB32100208047E0910058
:104B9000E240242047E0F2A002803280C4A00860F6
:104BA000D7F71400140027E02A006200A3C02200F7
:104BB000220023E0220022002200D5DF040004406E
:104BC0007F800500FFE008003FC0E0403FC020407C
:104BD0003FC02040D6C740007DE091201120FD203D
:104BE00029E04400BFC020403FC020403FC0C4DC9B
:104BF00022404A80FB00022079E048007A004A40C7
:104C00007A804B204A2059E0C3C54FE02020002085
:104C10004020402040204020402040204020402094
:104C200040E0C7EB82005FE002000FC0C2005FE01F
:104C300048404FC048404FC0684048C0D4D9FFE00A
:104C400004007FC0444044407FC044404440FFE0F3
:104C50004040404041C0B0B42100208027E0F42013
:104C60002100210037E0E2402240218022406C20D8
:104C7000D5FD00007FC0040004000400240027C00C
:104C80002400240024002400FFE0B3A324801500A6
:104C9000FFE080203F8020803F8004007FC04440B0
:104CA00044C00400B6D400400040F8400BE0084087
:104CB00088405240514021405040484089C0B1C8CE
:104CC00042004200422042407A80430042004200BB
:104CD0004A005220622041E0C1BD0000FFE0110007
:104CE0001100FFE091209120AAA0C46088208020BC
:104CF0008060B4CE0400840047E008200A4012001F
:104D0000020025004500888010402020D2BB000012
:104D100000000000000000000000FFE000000000B4
:104D2000000000000000D1F9244022802FE0F100B3
:104D3000210067C07100A1002FE0210021002100A7
:104D4000CAA70400240024003F804400840004001B
:104D5000FFE00A0011002080C060B0DC0100F90013
:104D60008A00ABE0AC40AA40AA40AA40AA80210039
:104D700052808C60D6D803C07C000400FFE0444021
:104D80007FC044407FC004007FC00400FFE0C9FA38
:104D90000400240024003FC04400840004003F803D
:104DA000040004000400FFE0B3C9028002407FE079
:104DB000420042007A404A404A8049205AA044605A
:104DC0008820D6B8242024C02700F42023E0200027
:104DD00037E0E42027E0242027E06420CEC622002C
:104DE00021004FE09440E44024404280F2800100E2
:104DF0003280C4400820C4A322802FE02280F7C064
:104E0000244067C07440A7C021002FE022802C609E
:104E1000B0E5206027802400F40027E075206D2095
:104E2000A5402540248029403220B4A22100210041
:104E300053A04140F7E0510053C0564053C05A4080
:104E400053C04240B4E608000800FFE0100027C04D
:104E500020806100AFE02100210021002300BCEC94
:104E6000210021002280F440282067C07000A24069
:104E70002940254024802FE0B2E20020BE2062A01D
:104E80002AA02AA0AAA06AA02AA02AA0482094208A
:104E90002260A3A10000300030003000300030005C
:104EA000000000003000300000000000A3BA000045
:104EB0000000000000003000300000000000300062
:104EC000300000000000B4ED4240424077E08240F4
:104ED000EFE0400047E0F42047E0542067E0442042
:104EE000CEF38F80488008800F80C0005FC04200F2
:104EF0007FE04200650048801060CAFD10006A0033
:104F0000220033806C80B5007B002B0071001B00F9
:104F100064800000BEDD20002F8028807F802A0072
:104F20003FC06A002F802C80348077800000B0FC66
:104F3000100020003F004100FD0025002500390041
:104F4000230020803F800000BDD322002F8021005D
:104F5000E5002F802400EFC025002D0023005C8099
:104F60000000CAD512002400A7C0A900AD00AD0002
:104F7000A500E2002200250038800000B4AB20002C
:104F800024002F8064007F80A4002780210025005A
:104F9000220021000000B8D0050005007E007D0041
:104FA00043007B007B408480590058805F000000F4
:104FB000C6F70000778054802B007F800C00738040
:104FC00077805480548067800000C9CF08000800B3
:104FD000080008000F80080008000800080008000A
:104FE0007FC00000C3BB00002F00190049003180C2
:104FF00010002F0025004600470058800000D3D045
:10500000080008007F8010001F8030805F801080C3
:105010001F80108011000000CAD600007F800400AD
:1050200004003F8004007FC0040004000400080066
:105030000000D6B8200028002F0078002C80330014
:105040006F8028802F802F8068800000CDBC0000FA
:105050007F80488056806C804C807B8044804C8070
:1050600040807F800000CFF124002F004A005F8045
:1050700054804F005D004B0056804A8006000000BF
:10508000CAA70000280028003F00480008007F80D1
:105090000C001200318040800000B0DC02007A0079
:1050A0004A004D806C806D006B006B0031004B003E
:1050B00004C00000B2BB00007F80080008001A0096
:1050C0001900288048800800080008000000C6A5D4
:1050D00000007F804A004A004A004A005280538004
:1050E000600040007F800000C5E4000071803080D7
:1050F0007880B880DB005A008A00FA007A400B8082
:105100000000C4A322802FE02280F7C0244067C0A3
:105110007440A7C021002FE022802C60BFE942002C
:1051200042004FC0E240424042405FE04200650022
:10513000C50008801060C2EB0FC0F040244024403E
:10514000444077E0D02050205FA07020502000C065
:10515000D3D008000800FFE010003FC06040BFC08F
:1051600020403FC02040204020C0B5D82100210071
:10517000256025A0F7202D2025202560250034203E
:10518000C42003E0D6B72080208020802480F4E073
:1051900024802480248024803480C4800FE0B6C121
:1051A00082004FC002001FE0C020450053004900AC
:1051B0005FE0628044401820D0B4FFE0A0202000CF
:1051C0003FC0200040007FC000400040FF40004042
:1051D0000380B3F604004440444044407FC00400D0
:1051E0000400842084208420FFE00020BBBA2060DB
:1051F0002F804A209540EFE021004FE0E20007C0F9
:105200002A40D1800E60B3E5010081004FE0092003
:105210000920092009202FE0492081000100010018
:10522000C7F800007FE04000504048804500420041
:1052300045004880504040007FE0B0E52060278076
:105240002400F40027E075206D20A540254024802F
:1052500029403220CCD821002100A7C0F100AFE0C6
:10526000208037E0E0802480228020802380D5F7D2
:1052700020004FE0810021004100C90049E04900C1
:105280004900490049005FE0BACF04000A0011005C
:105290002080C0603F8000007FC0404040407FC011
:1052A0004040B2A22080110000007FC01100110018
:1052B0001100FFE01100210021004100CCAB0400EF
:1052C00004000400FFE004000A000A0012001100BC
:1052D000290044808060B8C900007FC00400040039
:1052E00004000400FFE004000400040004000400C3
:1052F000A1A200000000000000000000000010005B
:1053000008000C00040000000000B5AD01004520BD
:105310002540090082C04C20010005202940428020
:1053200084401820B6F80000FFE0040008007FC0A9
:105330004A404A404A404A404A404A4040C0C9FA6E
:105340000400240024003FC04400840004003F8087
:10535000040004000400FFE0B3C9028002407FE0C3
:10536000420042007A404A404A8049205AA04460A4
:105370008820CCD821002100A7C0F100AFE0208018
:1053800037E0E0802480228020802380D5F7200031
:105390004FE0810021004100C90049E04900490077
:1053A000490049005FE0C2D20D00710011001100F8
:1053B000FF00110011007D00450045207D2044E0E4
:1053C000B5E3040007E0040004007FC04040404013
:1053D00040407FC0000052408920C9D90400040029
:1053E000248024404420842004000480010006001E
:1053F0001800E000C3E60000FFE0040008007FE0C2
:1054000049204F2049204F2049207FE04020BBFD0C
:105410001000E7C024402440F4402440644077C09A
:10542000A000228024402820C0B62080FFE02080F9
:10543000120053E05480504000007FC04A404A4070
:10544000FFE0D1C000007FC00100210041007FE0EB
:105450000300050009003100C1000700C3DC04009F
:10546000FFE088200500524054A08FA030000400C7
:10547000444044407FC000000000000000000000E5
:10548000000000000000000000000000000000001C
:10549000C2BC00003FF0001000101FF00010001010
:1054A000FFFE010021081190056009203118C50692
:1054B0000200C8EB040002000100010001000280AC
:1054C00002800280044004400820082010102010B0
:1054D00040088006D6B811001104113811C0FD0231
:1054E000110210FE140019FC3104D10411FC110446
:1054F000110451FC2104CEC610801040204027FC2E
:105500004910F110111021104110F8A040A00040E6
:1055100018A0E11042080C06C9BE00027BC24A4234
:105520004A4A4A4A4A4A4A4AFFEA4A4A4A4A4A4A86
:105530004A4A4A425A42854A0884B3FD00407840AC
:1055400048A05110520865F6504048404FFC484072
:105550006A5052484444484441404080D0DE108064
:10556000108011F821082A906C60A9982E2628C076
:105570002B10282028C82B10206021802600B8C4BA
:1055800000400040FC8004FE0508050806887C8871
:1055900040884050405044205850608841040202E6
:1055A000C3DC020001007FFE4002822409402888FB
:1055B0004B141C10E7F001002108210821083FF8D6
:1055C0000008C2EB000001F8FC08100810882088D1
:1055D0003C8864FE6402A402240225FA3C022402F0
:1055E00020140008CAB1000800087C08440845FEE1
:1055F000440844087C0844884448444844087C08DB
:10560000440800280010BCE4200013FC10044004EF
:1056100047C444444444444447C444444444444444
:1056200047C4400440144008BFA80200020003F829
:10563000020002000200FFFE0200020002400220FF
:1056400002100208020002000200C6AC0040104036
:105650001040104010401FFC1000100010001FE010
:10566000102010201020202020204020B2E901002E
:1056700001007FFC054009203118C1061FF0101001
:105680001FF010101FF010100000FFFE0000BFB44C
:1056900000F87F0001003FF80200FFFE0400080050
:1056A0001FF028104FF088100FF008100FF00810AE
:1056B000D0C5084008200BFE1000100031FC30005F
:1056C000500091FC1000100011FC1104110411FC99
:1056D0001104CFA2010002001FF010101FF01010E3
:1056E0001FF010101FF0101001000884489248129B
:1056F00087F00000D2D100003FF000100010001031
:10570000201020103FF02000200020002004200462
:1057100020041FFC0000CBF8102011243CA420A87A
:105720004020BDFC11041124FD2411241124112456
:105730001450188811040202B6A8020001007FFE6E
:105740004002800400003FF801000100110011F840
:1057500011001100290047FE8000D0C2100008048B
:105760007F78004022401440FF7E084808487F4868
:1057700008482A484948888828881108B3C9005031
:10578000004800403FFE2040204020443E44224448
:105790002228222822122A32444A40868102B9A6AF
:1057A000004000400040FE4011FC104410441044F2
:1057B0001044108410841E84F10441040228041053
:1057C000A1A2000000000000000000000000000096
:1057D000000000000000200018000C000400000081
:1057E0000000B4ED21102110391027FC4110791070
:1057F000AFFE2000FBF82208220823F82A0832080E
:1058000023F80208CEF3000043F82208220803F828
:105810000000E00027FC204020402FFE204028A070
:10582000311022080C06D5FD00007FFC01000100AC
:1058300001000100110011F8110011001100110008
:1058400011001100FFFE0000D4DA02000200040083
:10585000FFFE080008401040304057FC90401040C8
:105860001040104010401FFE1000BCEC10401040D3
:1058700010A010A0FD10120835F6380054885048CA
:10588000924811501110102017FE1000B2E20004CF
:1058900027C4144414548554455445541554155480
:1058A0002554E55421042284224424140808C9E81C
:1058B000000021F0111011100110020EF40013F875
:1058C00011081110109014A0184010A003180C0615
:1058D000D6C37FFC44447FFC01007FFC01001FF025
:1058E00010101FF010101FF010101FF01010FFFE0E
:1058F0000000A3A100001000100010001000100014
:105900001000100010001000000000001000100037
:1059100000000000B4ED21102110391027FC4110C7
:105920007910AFFE2000FBF82208220823F82A088D
:10593000320823F80208CEF3000043F822082208B8
:1059400003F80000E00027FC204020402FFE20400C
:1059500028A0311022080C06B4CE008040802080A0
:1059600020FC010409080A4014401040E0A020A0D7
:1059700021102110220824040802CAFD0820492011
:105980002A20083EFF442A44494488A41028FE28BF
:1059900022104210642818283444C282B9FD001035
:1059A0002010101017FE00100010F210111011102E
:1059B0001010101010501020280047FE0000B6E014
:1059C0000200020007F008203840048003400C80E9
:1059D00071F802080C103220014001800E007000A6
:1059E000C7EB0040404027FC204003F80040E7FEA2
:1059F000200023F8220823F822082BF83208222856
:105A00000210C3EB08201C20F02010A810A4FCA258
:105A1000112231203A2454245428900810101020C8
:105A200010C01300BAF3001000F81F00100010009F
:105A30001FFE10001000100017F814082408240896
:105A4000440887F80408D6D8001000F83F00010089
:105A5000FFFE01001FF011101FF011101FF00100D8
:105A60003FF80100FFFE0000CAD4002820241024C3
:105A7000102007FE0020F02017E011201110111057
:105A8000151019CA170A02060002D6C720003E7C6C
:105A900048440844FF441444227C40001FF0101086
:105AA00010101FF0101010101FF01010C4DC104068
:105AB00024444248FF70014000427E42423E420080
:105AC0007E44424842707E4042424A42443EC3C500
:105AD000200013FC1004400440044004400440042F
